:020000040800F2
:1000000000800120A1050008F1050008F1050008A5
:10001000F1050008F1050008F105000800000000E6
:10002000000000000000000000000000F1050008D2
:10003000F105000800000000F1050008F1050008C6
:10004000F1050008F1050008F1050008F1050008B8
:10005000F1050008F1050008F1050008F1050008A8
:10006000F1050008F1050008F1050008F105000898
:10007000F1050008F1050008F1050008F105000888
:10008000F1050008F1050008F10500080000000076
:10009000000000000000000000000000F105000862
:1000A000F1050008F1050008F1050008F105000858
:1000B000F1050008F1050008F1050008F105000848
:1000C000F1050008F1050008F1050008F105000838
:1000D000F1050008F1050008F10500080000000026
:1000E000F1050008F1050008F10500080000000016
:1000F000000000000000000000000000F105000802
:1001000000000000F1050008F1050008F1050008F5
:1001100000000000000000000000000000000000DF
:10012000F1050008F1050008F1050008F1050008D7
:10013000F1050008000000000000000000000000C1
:10014000000000000000000000000000F1050008B1
:10015000F1050008F1050008F1050008F1050008A7
:10016000F1050008F1050008000000000000000093
:10017000000000000000000000000000000000007F
:1001800000000000F1050008000000000000000071
:04019000F10500086D
:10019400044B05481B1A062B02D9044B03B118471C
:1001A400704700BF3304002030040020000000002A
:1001B40005490648091A891001EBD171491002D08A
:1001C400034B03B11847704730040020300400206B
:1001D4000000000010B5064C237843B9FFF7D8FFA0
:1001E400044B13B10448AFF300800123237010BD06
:1001F40030040020000000003407000808B5084B54
:100204001BB108480849AFF300800848036813B9D4
:10021400BDE80840CCE7064B002BF9D09847F7E738
:1002240000000000340700083404002030040020DB
:1002340000000000204A136C43F0805313641F4BEA
:10024400196841F40041196011688907FCD51A68DE
:1002540002F07F421A60184B1A689201FBD4184AC4
:100264005A601A6842F080721A601A681249900142
:10027400FBD5144A136843F4407343F0020313603C
:10028400136803F00F03022B00D0FEE78B6843F0E2
:1002940002038B60084B9A681207FBD59A6822F018
:1002A400F0029A609A6842F0F0029A609A6822F426
:1002B40060429A60704700BF0038024000700040FE
:1002C40010540127003C0240FEE700BF014B1868B0
:1002D400704700BF00000020084B4FF4E0529B68B9
:1002E40092FAA2F203F4E053B2FA82F2D340044A3F
:1002F400D35C044A1068D840704700BF00380240FD
:100304004C070008000000202DE9F84305460028AA
:1003140000F0AB80564B07681A6C42F400321A6442
:100324001A6C1A6B42F001021A631B6BFB68296991
:1003340023F40053FB603B6923F4405283688069D3
:1003440013436A683B61FB6811436A6923F41643EB
:100354000A4323F00C0302431343B0F5004FFB6040
:100364004FF47A7438D1FFF7B7FFEB6860434FEA74
:10037400C308B0FBF8F8FFF7AFFFB8FBF4F8EE687A
:100384006043F600B0FBF6F6FFF7A6FFEB686043A8
:10039400DB00B0FBF3F0B0FBF4F004FB1066FFF7F6
:1003A4009BFFEB686043DB00B0FBF3F9FFF794FFBE
:1003B400EB686043F608DB00B0FBF3F0B0FBF4F04D
:1003C40004FB109406F0F006C4F3C3004FEA0818C7
:1003D40034184444BC6038E0FFF77EFFEB686043A8
:1003E4004FEA0318B0FBF8F8FFF776FFB8FBF4F810
:1003F400EE6860433601B0FBF6F6FFF76DFFEB687D
:1004040060431B01B0FBF3F0B0FBF4F004FB106697
:10041400FFF762FFEB6860431B01B0FBF3F9FFF7E2
:100424005BFFEB6860431B01B0FBF3F0B0FBF4F03F
:1004340004FB1094A4084FEA0818760804F0060494
:1004440006F4F87644442644BE602B681A6922F404
:1004540090421A615A6922F02A025A61DA6842F417
:100464000052DA600020BDE8F8830120BDE8F8837B
:1004740000380240084B4FF460429B6892FAA2F2A3
:1004840003F46043B2FA82F2D340044AD35C044AD0
:100494001068D840704700BF003802404C0700087D
:1004A4000000002030B502252C46944209D0036890
:1004B4001B680B408B424FF000054FF00104F4D051
:1004C400F2E7002030BD70B506460D460AB901209A
:1004D40070BD0029FBD0541EA4B20134F1610C4458
:1004E4000284304680210122FFF7DCFF0028EED190
:1004F40015F8012B3368A5425A60F2D130464021E9
:100504000122FFF7CFFF003018BF012070BD70B586
:1005140006460AB9012070BD0029FBD00285013AC4
:1005240092B2023241624D1C8C18304620210122C5
:10053400FFF7B8FF0028EDD1336832695B680AB170
:1005440003F07F0305F8013C0135A542EDD170BDF0
:100554000748084B03604FF416520023C2600C2274
:1005640043608360036142618361FFF7CDBE00BFD6
:100574004C0400200044004008B5FFF7E9FF05499A
:1005840005480122FFF7C3FF024903480122FFF790
:100594009AFFF4E7780400204C040020DFF834D0FC
:1005A400002103E00C4B5B58435004310B480C4BC7
:1005B40042189A42F6D30B4A02E0002342F8043B65
:1005C400094B9A42F9D3FFF735FE00F02DF8FFF7F7
:1005D400D3FF704700800120780700080000002046
:1005E40030040020300400207C040020FEE70000DA
:1005F400014600200246034600F03EB838B5084BD9
:10060400084DED1AAC1018BFED1805D0013C55F893
:10061400043D9847002CF9D1BDE8384000F08EB86D
:10062400740700087807000870B50F4E0F4D761B4D
:10063400B61018BF002405D0013455F8043B984780
:10064400A642F9D10A4E0B4D761B00F071F8B61094
:1006540018BF002406D0013455F8043B9847A6423D
:10066400F9D170BD70BD00BF6C0700086C070008AD
:10067400740700086C0700082DE9F047254C25682D
:10068400D5F848410646884692469946CCB36068F8
:100694001F2818DC431C7EB104EB80050121C5F83A
:1006A40088A0D4F8887101FA00F21743022EC4F826
:1006B4008871C5F808911ED00230636044F8208028
:1006C4000020BDE8F087144B03B34FF4C870AFF3B8
:1006D40000800446D0B1D5F84831002780E888006E
:1006E400C5F8484138460123C4F88871C4F88C71B0
:1006F400002EE1D0D0E7D4F88C110A43C4F88C2141
:10070400DAE705F5A674C5F84841C0E74FF0FF30B5
:10071400BDE8F0876807000800000000024B13B131
:100724000248FFF765BF704700000000010600089B
:10073400F8B500BFF8BC08BC9E467047F8B500BFCA
:08074400F8BC08BC9E4670479A
:10074C000000000001020304000000000000000093
:10075C0001020304060708094300000008000020FA
:08076C0021070008010200084A
:04077400D90100089F
:100778000024F4000000000000000000F402002043
:100788005C030020C40300200000000000000000FB
:100798000000000000000000000000000000000051
:1007A80000000000000000000000000064070008CE
:1007B8000000000000000000000000000000000031
:1007C8000000000000000000000000000000000021
:1007D8000000000000000000000000000000000011
:1007E8000000000000000000000000000000000001
:1007F80000000000000000000000000000000000F1
:1008080000000000000000000000000000000000E0
:1008180000000000000000000000000000000000D0
:1008280001000000000000000E33CDAB34126DE66D
:10083800ECDE05000B0000000000000000000000D6
:1008480000000000000000000000000000000000A0
:100858000000000000000000000000000000000090
:100868000000000000000000000000000000000080
:100878000000000000000000000000000000000070
:04000005080005A149
:00000001FF
